:020000040800F2
:1000000030220020251D00089106000893060008F4
:10001000970600089B0600089F06000800000000E5
:10002000000000000000000000000000A30600081F
:10003000A506000800000000A7060008A9060008A1
:100040003F1D00083F1D00083F1D00083F1D000820
:100050003F1D00083F1D00083F1D00083F1D000810
:100060003F1D00083F1D00083F1D00083F1D000800
:100070003F1D00083F1D00083F1D00083F1D0008F0
:100080003F1D00083F1D00083F1D00083F1D0008E0
:100090003F1D00083F1D00083F1D00083F1D0008D0
:1000A0003F1D00083F1D00083F1D00083F1D0008C0
:1000B000E11B0008F31A00083F1D00083F1D00085F
:1000C0003F1D00083F1D00083F1D00083F1D0008A0
:1000D0003F1D0008211A000871390008391A00086C
:1000E0003F1D00083F1D00083F1D00083F1D000880
:1000F0003F1D00083F1D00083F1D00083F1D000870
:100100003F1D00083F1D00083F1D00083F1D00085F
:100110003F1D00083F1D00083F1D00083F1D00084F
:100120003F1D00083F1D00083F1D00083F1D00083F
:1001300000F002F800F0B6F80AA090E8000C824443
:100140008344AAF10107DA4501D100F0ABF8AFF220
:10015000090EBAE80F0013F0010F18BFFB1A43F0A5
:100160000103184768BC000088BC00000A444FF037
:10017000000C10F8013B13F0070408BF10F8014B06
:100180001D1108BF10F8015B641E05D010F8016B4B
:10019000641E01F8016BF9D113F0080F1EBF10F8AF
:1001A000014BAD1C0C1B09D16D1E58BF01F801CBD2
:1001B000FAD505E014F8016B01F8016B6D1EF9D555
:1001C0009142D6D37047000000230024002500266A
:1001D000103A28BF78C1FBD8520728BF30C148BFAA
:1001E0000B6070476E2907F0F580702906F0A38533
:1001F00066290AF0C98065290AF0C68067290AF0D5
:10020000C3806129AFF3008003681B0A28BF41F057
:100210008001692906F01485642906F01185752985
:1002200006F00E856F2907F0F283782906F06F85B6
:10023000E92907F08D83E42907F08A83F52907F07F
:100240008783EF2907F0EF83F82906F06E850368AE
:10025000DB0928BF41F08001632907F00E83732971
:1002600007F01383E32907F0D384F32907F0D88438
:10027000002070471FB59DE8030006F0FFFF06F061
:100280004CFE07F017FC04000020002109F060F884
:10029000401C60600020002109F070F8E0601FBD84
:1002A00010B510BD07F0AAFD1146FFF7E3FF00F0FF
:1002B0002BF907F0D6FD03B4FFF7F2FF03BC07F0FC
:1002C00047FE00000B49D1F800C04A685CF8043BC7
:1002D0001068184442F8040B8C4528BFA1F1DC0CCF
:1002E0008A4228BFA1F1DC02C1F800C04A6020F0B8
:1002F00000407047C41B00207CB5A9480088002836
:1003000041D0A84BA84AA949A94800F0BCFCA7487D
:100310000078A7490978CDE90010A2480378A248DF
:100320000278A4A1AA4801F02CFB462000F0BBFBF8
:1003300070B900F014FCA74908600846006809F08D
:1003400015FE044622460B46A3A1A14801F019FB65
:10035000A6480078A0B99648007850280DDA92484F
:1003600000781E2809DAA2499A48006809F00CFFB3
:1003700003D200209F49087002E001209D490870C7
:100380000020874908807CBD70B586B000249A485B
:100390000088002832D01021984801F0D6FD08B915
:1003A000012000E000209649087096A1884801F0DD
:1003B000E8FA8848006809F0D9FD05460E468D48E0
:1003C00000788F490978CDE90256CDE904107748C5
:1003D000007877490978CDE90010724803787248AF
:1003E00002788DA19B4806F0C5FB9A499A4804F013
:1003F0000BFB03F0B7F900207F490880032003F0CE
:100400000CFA044614B1204604F02AFB0A2001F03D
:100410007EF906B070BD10B50024002000F0A0FCED
:100420000446012C02D0022C22D108E08B4800683F
:1004300008B9012000E00020884908601CE06D48F0
:10044000007808B9012000E000206A49087084485B
:10045000006808B9012000E0002081490860634875
:10046000007808B9012000E000206049087003E02E
:100470000A2001F04CF900BF00BF10BD10B579484B
:100480000078AA283FD17748407821281AD006DC86
:10049000102809D011280BD0202827D10CE03028B3
:1004A00016D0312822D11AE001206C4908601DE0E5
:1004B00000206A49086019E000204E4908704B4945
:1004C000087013E001204B490870484908700DE09E
:1004D0003548027864A1654801F053FA06E03448D3
:1004E000027861A1614801F04CFA00BF00BF00240E
:1004F00004E000205B490855601CC4B2022CF8DB04
:1005000000205B49087010BD01F0C4F800F0BEF98E
:1005100000F0E4F900F014FC00F0ECFB00F016FB36
:1005200001F00CF8002000F0B8FC002000F0C3FC43
:1005300000F016FD41F61F4140F6C31001F022FB0A
:1005400041F61F4141F2873001F0A6FA4FF4E13045
:1005500001F00AF94FF4E13001F058F94FF4E130BD
:1005600001F0A5F943A11A4801F00BFA4FF4FA7013
:1005700001F0CDF80020394910390860FA2001F067
:10058000C6F801204049C1F8800101213F4804F02C
:1005900013FA03E0FFF772FFFFF73DFFFAE70000F1
:1005A00012000020050000200400002003000020AD
:1005B00002000020CEC2B6C8A3BA25642E2564204E
:1005C00020CAAAB6C8A3BA25642E2564000000007C
:1005D0000038014008000020B9E2D5D5B6C8A3BA5A
:1005E000252E3166206C780D0A00000001000020E5
:1005F00000401C46000000201400002000080140BC
:10060000060000204F6E654E65745F5075626C6920
:1006100073680D0A000000007B2254656D70223A59
:1006200025642E25642C2248756D69223A25642E96
:1006300025642C224C69676874223A252E31662C79
:10064000224C6564223A25642C2242656570223A68
:1006500025647D00941400207CA4000890012142B0
:10066000B40122421600002025640000004800402A
:100670001800002020486172647761726520696EFD
:100680006974204F4B0D0A00000021420C0000202D
:10069000704700BFFEE700BFFEE700BFFEE700BFF8
:1006A000FEE7704770477047704700000CB50020A8
:1006B000019000906C48006840F480306A490860FE
:1006C00000BF6948006800F4003000900198401CA9
:1006D0000190009818B90198B0F5A06FF1D1624867
:1006E000006800F4003010B10120009001E000200B
:1006F00000900098012843D15C48006840F0100049
:100700005A4908600846006820F00300086008465F
:10071000006840F002000860534840685249486051
:100720000846406848600846406840F48060486079
:100730000846406820F47C1048600846406840F451
:10074000E81048600846006840F08070086000BF0C
:100750004548006800F000700028F9D04248406821
:1007600020F00300404948600846406840F002001D
:10077000486000BF3C48406800F00C000828F9D1F0
:100780000CBD10B5FFF792FF10BD10B536480068DC
:1007900040F0010034490860084640683449084088
:1007A0003149486008460068324908402E490860CF
:1007B0000846006820F4802008600846406820F45D
:1007C000FE0048604FF41F008860FFF7DAFF4FF02B
:1007D00000602949086010BD10B5002100200022EA
:1007E000214B5B6803F00C0121B1042906D00829D4
:1007F00028D107E0214B224C236027E01F4B204CDF
:10080000236023E0184B5B6803F47010164B5B68A1
:1008100003F48032022303EB904022B9194B434387
:10082000174C23600DE0104B5B6803F4003323B1D9
:10083000144B4343124C236003E0104B4343104CD2
:10084000236003E00D4B0E4C236000BF00BF064B3E
:100850005B68C3F303130C4CE15C094B1B68CB4092
:10086000074C236010BD0000001002400020024031
:100870000000FFF8FFFFF6FE08ED00E000127A002E
:100880001C00002000093D002000002008B50121C7
:10089000142001F083FD1020ADF800008DF8030056
:1008A00003208DF8020069460A4801F0BBFA1021C6
:1008B000084801F064FB4FF40050ADF800006946B1
:1008C000054801F0AFFA4FF40051034801F057FB1F
:1008D00008BD0000000801400010014008B50121DA
:1008E000042001F05BFD0120ADF8000010208DF820
:1008F000030003208DF802006946044801F092FAD3
:100900000121024801F03BFB08BD00000008014046
:10091000002001E0411CC8B20A28FBDB704710B57B
:1009200080209749086040200860FFF7F1FF802091
:100930009349091D0860FFF7EBFF40209049091D0E
:100940000860FFF7E5FF10BD10B580208C49091D38
:1009500008604020091F0860FFF7DAFF80208849FF
:10096000086010BD70B50446002520E004F080004A
:1009700018B180208249086003E080208049091D69
:100980000860FFF7C5FF40207D490860FFF7C0FF02
:1009900040207B49091D0860072D02D18020091FD6
:1009A00008606006040EFFF7B3FF681CC5B2082D8F
:1009B000DCDB70BD70B50024002516E06006040E77
:1009C00040206F490860FFF7A3FF6D4808380068B2
:1009D00000F0800008B1601CC4B240206849091DC5
:1009E0000860FFF795FF681CC5B2082DE6DB2046BE
:1009F00070BD10B5802062490860FFF789FF402074
:100A00005F490860FFF784FF5D480838006800F020
:100A1000800008B1012400E0002440205849091D4D
:100A20000860FFF775FF204610BD10B580205449BF
:100A3000091D0860FFF76CFF402051490860FFF76F
:100A400067FF40204E49091D0860FFF761FF8020C5
:100A50004B49086010BD10B5802049490860FFF778
:100A600057FF402046490860FFF752FF40204449A5
:100A7000091D0860FFF74CFF10BD08B501210820D3
:100A800001F08CFCC020ADF8000003208DF80200BE
:100A900014208DF8030069463948103801F0C2F976
:100AA000FFF752FF08BD70B50446FFF738FF204638
:100AB000FFF758FFFFF79DFF0546FFF745FF284664
:100AC00070BD10B50446FFF72AFF4620FFF74AFF26
:100AD000FFF78FFF012800D110BD2046FFF742FF2E
:100AE000FFF787FF012801D10220F5E7FFF72CFF70
:100AF0000020F1E710B50024FFF711FF4720FFF7B2
:100B000031FFFFF776FF012801D1002010BDFFF76C
:100B100051FF0446FFF789FFFFF74CFF00EB04206D
:100B200084B2FFF798FFFFF70FFF2046EEE710B5FE
:100B30000120FFF7C6FF10BD10B50020FFF7C1FF71
:100B400010BD10B50720FFF7BCFF10BD10B5FFF7B3
:100B500094FFFFF7ECFF1020FFF7B3FF10BD70B557
:100B6000FFF7C8FF064609F0FBFA0546054909F0FC
:100B700035FA04464FF07E5109F03AFB70BD000093
:100B8000100C0140CDCC8C3F10B56A48006820F0B5
:100B90000F00684908600846006840F003000860DC
:100BA000002065490860142000F0B1FD0120634970
:100BB000C1F8A0011E2000F086FD10BD10B5002474
:100BC0005C48006820F00F005A4908600846006839
:100BD00040F00800086004E0601CC4B2012000F08E
:100BE00072FD55488038006808B1642CF4DB642C31
:100BF00001DB012010BD002404E0601CC4B2012010
:100C000000F061FD4C488038006808B9642CF4DBC2
:100C1000642C01DB0120EDE70020EBE710B5002498
:100C200004E0601CC4B2012000F04DFD4248803851
:100C3000006808B1642CF4DB002404E0601CC4B23A
:100C4000012000F040FD3C488038006808B9642C61
:100C5000F4DB282000F037FD37488038006808B101
:100C6000012010BD0020FCE770B50024002506E03F
:100C70006006040EFFF7D2FF0443681CC5B2082DBE
:100C8000F6DB204670BD2DE9FC4105460E461746B1
:100C90009846FFF779FFFFF791FF30BB002405E08E
:100CA000FFF7E2FF0DF80400601CC4B2052CF7DB6F
:100CB0009DF800009DF8011008449DF802100844BA
:100CC0009DF8031008449DF80410884210D19DF847
:100CD000000028709DF8010030709DF80200387007
:100CE0009DF8030088F8000002E00120BDE8FC81C7
:100CF0000020FBE708B50121042001F04FFB4FF471
:100D00008070ADF8000010208DF8030003208DF8EE
:100D1000020069460748001F01F084F84FF4807113
:100D20000448001F01F02BF9FFF72EFFFFF746FFE5
:100D300008BD000004080140A0012142000021423A
:100D400008B50121082001F029FB0320ADF80000BF
:100D500048208DF803006946184801F063F808BD83
:100D600010B5044614B101201549087014480078E4
:100D7000B8B11448006818B11248001D006880B965
:100D80000A2000F0C4FC00200D4908700D480068DE
:100D900008B9012010BD0B48001D006860B9022091
:100DA000F8E708480068012806D10648001D0068D9
:100DB000012801D1024908700020EBE7000C014036
:100DC000300000200081214210B52021FB4801F0B5
:100DD000D6F88021F94801F0D4F88021F74801F0D5
:100DE000CEF810BD10B52021F44801F0C8F820213C
:100DF000F24801F0C6F810BD70B5044600251BE0AE
:100E00002021EE4801F0BDF804F0800020B18021DF
:100E1000EA4801F0B4F803E08021E84801F0B1F8B5
:100E20002021E64801F0ABF82021E44801F0A9F8C0
:100E30006006040E681CC5B2082DE1DB70BD10B55C
:100E40008021DE4801F09BF82021DC4801F097F872
:100E50008021DA4801F095F82021D84801F091F876
:100E600010BD70B505460C46FFF7E9FF7820FFF787
:100E7000C3FFFFF7B7FF1CB14020FFF7BDFF02E043
:100E80000020FFF7B9FFFFF7ADFF2846FFF7B4FFDB
:100E9000FFF7A8FFFFF798FF70BD10B504461CB917
:100EA0000021A620FFF7DDFF012C03D10021A720A0
:100EB000FFF7D7FF10BD10B504463CB90021C8208C
:100EC000FFF7CFFF0021A120FFF7CBFF012C07D1B7
:100ED0000021C020FFF7C5FF0021A020FFF7C1FFC0
:100EE00010BD10B500218D20FFF7BBFF002114209D
:100EF000FFF7B7FF0021AF20FFF7B3FF10BD10B51C
:100F000000218D20FFF7ADFF00211020FFF7A9FF82
:100F10000021AF20FFF7A5FF10BD70B500241CE035
:100F200004F1B001C8B20021FFF79BFF0021084681
:100F3000FFF797FF00211020FFF793FF002508E03F
:100F40009F4901EBC501085D0121FFF78AFF681C7D
:100F5000C5B2802DF4DB601CC4B2082CE0DB70BD90
:100F600070B500240CE0002506E00020944901EB58
:100F7000C5010855681CC5B2802DF6DB601CC4B2E3
:100F8000082CF0DBFFF7C9FF70BD70B50A46CE171D
:100F900001EB5676C6F3C703CE1701EB5676F61073
:100FA000A1EBC606F4B20122A240D5B2844A02EBFC
:100FB000C002D25C2A43824E06EBC006F25470BDDA
:100FC00070B50B46CE1701EB5676C6F3C702CE17A7
:100FD00001EB5676F610A1EBC606F4B20123A3404E
:100FE000DDB2774B03EBC0039B5CDB43744E06EB37
:100FF000C006B354724B03EBC0039B5C2B43704E93
:1010000006EBC006B3546E4B03EBC0039B5CDB43A3
:101010006B4E06EBC006B35470BD2DE9F84F054684
:101020000E4617469846002D0ADB802F08DC002E5E
:1010300006DBB8F1400F03DCBD4201DC464501DDB3
:10104000BDE8F88FBD420DD1002406E03019C1B2D1
:101050002846FFF79AFF601CC4B2A8EB0600A04226
:10106000F4DC30E046450CD1002406E02919C8B272
:101070003146FFF78AFF601CC4B2781BA042F5DC42
:1010800021E0A8EB060000F0FF0A781B00F0FF0B40
:101090000AEB8A00400090FBFBF000F0FF090024FF
:1010A0000EE004FB09F00A2190FBF1F03044C0B2DD
:1010B00029190090C8B20099FFF767FF601CC4B2FD
:1010C000781BA042EDDC00BFBAE72DE9F0430646ED
:1010D0000F469046002544463BE03A1BD1B27219B8
:1010E000D0B2FFF752FF3A1BD1B2721BD0B2FFF75A
:1010F0004CFF3A19D1B2721BD0B2FFF746FF3A1932
:10110000D1B27219D0B2FFF740FF7A19D1B23219B9
:10111000D0B2FFF73AFF7A1BD1B23219D0B2FFF743
:1011200034FF7A1BD1B2321BD0B2FFF72EFF7A19EF
:10113000D1B2321BD0B2FFF728FF6D1C05FB05F0C2
:1011400004FB040008FB1809B9F1000F01DD641E5F
:101150006D1E6000604308FB08F18842BDDABDE8FF
:10116000F0832DE9FF4F81B080460E461C46009665
:101170002046E31704EB5373DB1021464FEAE47C6F
:1011800004EB5C7C4FEAEC0CA4EBCC0CBCF1000F44
:1011900002D04FF0010C01E04FF0000C63442246F6
:1011A00004EBD27C4FEA6C0C03FB0CF303F0FF0B57
:1011B00003982038C7B200254CE000000008014029
:1011C000941500200C2C07D107EB4700FE4901EBDA
:1011D000800010F805A014E0102C05D1FB4800EBAE
:1011E000071010F805A00CE0182C07D107EBC7007A
:1011F000F74901EB800010F805A002E005B0BDE85A
:10120000F08F4FF000091FE00AF0800020B1314656
:101210004046FFF7BAFE03E031464046FFF7D0FEF6
:101220004FEA4A604FEA106A701CC6B20098301A42
:10123000A04205D1009E08F1010000F0FF0806E081
:1012400009F1010000F0FF09B9F1080FDCDB00BF74
:10125000681CC5B25D45B5DB00BFCFE7F0B50646FB
:101260000F4614461D4613E022782B463946304679
:10127000FFF777FF284605EBD07106EB6101CEB290
:10128000C5F18000B04202DA0026B81CC7B2641C67
:101290002078202802DB20787E28E5DDF0BDF0B53F
:1012A00004460D4616461F463B46CAA2294620461E
:1012B000FFF7D4FF3B46324629462046FFF7CEFFD4
:1012C000F0BD10B50246012000E050430B1EA1F115
:1012D0000104E1B2F9D110BD2DE9F04F06468A466E
:1012E00091461F46099C00252CE0781B401EC1B288
:1012F0000A20FFF7E6FFB9FBF0F00A21B0FBF1F29C
:1013000001FB1208B8F1000F0CD1A34604EBDB710E
:10131000491001FB0561C8B2234630225146FFF750
:1013200020FF0DE0A34604EBDB71491001FB0561D2
:10133000C8B208F13001CAB223465146FFF711FF87
:10134000681CC5B2BD42D0DBBDE8F08F70B5054664
:101350000024A548007804285CDAA3490878C1175E
:1013600000EB91718910A0EB810131B1012909D005
:1013700002290CD0032914D10EE029469B4805F020
:1013800003FE0FE029469A4805F0FEFD0AE02946D3
:10139000984805F0F9FD05E02946974805F0F4FD69
:1013A00000E000BF00BF90480678F01706EB907091
:1013B0008010A6EB80000007010E10232A460020B3
:1013C000FFF76DFFFFF7A9FDFEF77CFF642190FB9F
:1013D000F1F201FB1204A0B200F099F982480678FC
:1013E000F01706EB90708010A6EB80000007010E4E
:1013F000102382A25820FFF731FFFFF78EFDFEF782
:1014000061FF642190FBF1F201FB1204A0B200F035
:101410007EF945E07649754805F0B6FD1023734A1C
:1014200000210846FFF71AFF7249714805F0ACFD2C
:1014300010236F4A19460020FFF710FF6E496D48D0
:1014400005F0A2FD10236B4A20210020FFF706FFC4
:101450002946694805F098FD10232A4630210020CE
:10146000FFF71DFFFFF759FDFEF72CFF642190FBEE
:10147000F1F201FB1204A0B200F049F910235FA2BF
:1014800030215820FFF7EAFEFFF747FDFEF71AFF6D
:10149000642190FBF1F201FB1204A0B200F037F9D5
:1014A00051480078401C5049087070BD70B5044622
:1014B0000D4605F1B001C8B20021FFF7D2FC1021A2
:1014C00041EA14100021FFF7CCFC04F00F0141F0B9
:1014D00001000021FFF7C5FC70BD2DE9F05F054656
:1014E0000E4617469846DDF828B04FF00009CA4668
:1014F0000024E11704EB5171C910A4EBC10101B93B
:1015000001E0601CC4B2344614E021462846FFF7CF
:10151000CDFFAA460AE01BF809000121FFF7A1FC54
:1015200009F101090AF1010000F0FF0ABA45F2DBF6
:10153000601CC4B24445E8DBBDE8F09F08B501215A
:10154000042000F02BFFB020ADF8000010208DF833
:10155000030003208DF8020069462A4800F062FC6F
:10156000B021284800F00BFD0021AE20FFF779FCE8
:1015700000210846FFF775FC00211020FFF771FCE1
:1015800000214020FFF76DFC00218120FFF769FC5E
:101590000021CF20FFF765FC0021A120FFF761FCAF
:1015A0000021C820FFF75DFC0021A620FFF759FCB1
:1015B0000021A820FFF755FC00213F20FFF751FC38
:1015C0000021D32020E000008CA4000800A900081E
:1015D000F0AE0008202020202020202020202020E5
:1015E000202020200000000069140020141A002090
:1015F000241A0020341A0020441A00205B4F4B5D4F
:101600000000000000080140FFF72BFC0021084605
:10161000FFF727FC0021D520FFF723FC00218020C5
:10162000FFF71FFC0021D920FFF71BFC0021F12050
:10163000FFF717FC0021DA20FFF713FC002112202E
:10164000FFF70FFC0021DB20FFF70BFC00214020FF
:10165000FFF707FC00212020FFF703FC00210220F8
:10166000FFF7FFFB00218D20FFF7FBFB002114207B
:10167000FFF7F7FB0021A420FFF7F3FB0021A620D2
:10168000FFF7EFFB0021AF20FFF7EBFBFFF768FC54
:1016900008BD000010B56FF0040001F036F92E48C7
:1016A00000682E49B0FBF1F02D490870084600781B
:1016B00000EB4001C1EBC0104FF6FF7101EAC00022
:1016C0002849088010BD0146254A12784A434FF048
:1016D000E0235A6100229A611A46126942F001021F
:1016E0001A6100BF4FF0E022106900F001021AB148
:1016F00000F48032002AF5D04FF0E022126922F087
:1017000001024FF0E0231A6100229A6170470146FE
:10171000144A12884A434FF0E0235A6100229A612A
:101720001A46126942F001021A6100BF4FF0E0222E
:10173000106900F001021AB100F48032002AF5D0DD
:101740004FF0E022126922F001024FF0E0231A610B
:1017500000229A61704700001C00002000127A00ED
:101760006A1400206C14002010B586B004460121D4
:10177000042000F013FE0121880300F00FFE182062
:101780008DF817004FF40070ADF8140003208DF8A9
:10179000160005A9B54800F045FB04208DF8170098
:1017A0000002ADF8140003208DF8160005A9AF481B
:1017B00000F038FB01940020ADF810000C20ADF8CB
:1017C0000E000020ADF80C00ADF80A00ADF80800DE
:1017D00001A9A74800F089FE0121A54800F011FFEA
:1017E000012240F22551A24800F017FF25208DF874
:1017F000000001208DF8030002208DF801008DF813
:101800000200684601F037F806B010BD10B586B08A
:1018100004460121042000F0C1FD0121480400F02C
:10182000CAFD18208DF817000420ADF8140003201D
:101830008DF8160005A98D4800F0F4FA04208DF803
:1018400017000820ADF8140003208DF8160005A934
:10185000864800F0E7FA01940020ADF810000C2053
:10186000ADF80E000020ADF80C00ADF80A00ADF8A0
:10187000080001A97F4800F038FE01217D4800F0F2
:10188000C0FE012240F225517A4800F0C6FE262013
:101890008DF8000001208DF8030000208DF8010074
:1018A0008DF80200684600F0E6FF06B010BD10B5E6
:1018B00086B004460121082000F070FD0121880453
:1018C00000F079FD18208DF817004FF48060ADF816
:1018D000140003208DF8160005A9674800F0A2FA4D
:1018E00004208DF817004002ADF8140003208DF895
:1018F000160005A9604800F095FA01940020ADF8A3
:1019000010000C20ADF80E000020ADF80C00ADF872
:101910000A00ADF8080001A9584800F0E6FD0121D1
:10192000564800F06EFE012240F22551534800F067
:1019300074FE27208DF8000001208DF803008DF83B
:1019400001008DF80200684600F095FF06B010BD5A
:101950002DE9F04107460C46154600260DE014F827
:10196000011B384600F0BAFE00BF4021384600F0A7
:1019700023FF0028F9D0701C86B2AE42EFDBBDE831
:10198000F0810FB430B5CBB0054601AC50A8009043
:101990004FF4947101A8009B4F9A05F0D1F80020F4
:1019A00000900BE014F8011B284600F097FE00BFE2
:1019B0004021284600F000FF0028F9D020780028B8
:1019C000F0D14BB030BC5DF814FB0FB410B5CCB007
:1019D00002AC4FA801904FF4947102A8019B4E9A5B
:1019E00005F0AEF80020019025A12148FFF7C9FFBE
:1019F0000BE014F8011B1E4800F070FE00BF4021F0
:101A00001B4800F0D9FE0028F9D020780028F0D13A
:101A10001EA11748FFF7B5FF4CB010BC5DF814FBD2
:101A200010B540F22551124800F0DCFE18B120211B
:101A30000F4800F001FF10BD10B540F225510F48CE
:101A400000F0D0FE80B140F225510C4800F0F4FEC9
:101A50000A4800F047FE0E490E4A127888540D4895
:101A60000078401C0B49087010BD000000080140C0
:101A70000038014000440040000C01400048004094
:101A80005B4C4F475D202F3E200000000D0A0000F8
:101A900016000020180000207FB505460C460121E5
:101AA000022000F088FCADF80850ADF8044000209A
:101AB000ADF80A00ADF8060001A97B4801F018F85E
:101AC00001221146784801F08AFB1D208DF80000A4
:101AD00000208DF8010003208DF8020001208DF810
:101AE0000300684600F0C7FE01216F4801F05CFB6F
:101AF0007FBD10B501216C4801F01FFE002840D0C9
:101B00000121694801F02AFE6848007888B16848D8
:101B1000006808B9012000E00020654908606548B8
:101B2000D0F8800108B9012000E000206249086077
:101B300005E001205E4908605E49C1F880015F4907
:101B400008880988491C5D4A1180C11700EB917112
:101B50008910A0EB810119B901205949088002E0E0
:101B600000205749088055480088092806D10120DF
:101B70005449088000205149088002E00020514962
:101B8000088010BD7FB505460C460121084600F0CF
:101B900012FCADF80850ADF804400020ADF80A0082
:101BA000ADF8060001A94FF0804000F0A1FF01222E
:101BB0001146900701F013FB1C208DF80000002057
:101BC0008DF8010003208DF8020001208DF803003C
:101BD000684600F050FE0121880701F0E5FA7FBD5C
:101BE00070B50121880701F0A8FD00285AD0012115
:101BF000880701F0B3FD34A1354804F0BBFF102382
:101C0000334A00212E20FFF729FB32A1304804F08F
:101C1000B1FF10232E4A19460020FFF71FFB304862
:101C200003783048027830A1294804F0A3FF10233C
:101C3000274A19462820FFF711FB2DA1244804F05C
:101C400099FF1023224A20210020FFF707FB2C4890
:101C500003782C48027824A11D4804F08BFF102340
:101C60001B4A20212820FFF7F9FA27A1184804F081
:101C700081FF1023164A30210020FFF7EFFA264893
:101C8000006808F073F9044622460B4623A1104869
:101C900004F070FF10230E4A30210846FFF7DEFAE9
:101CA000FFF73BF970BD0000000400400000002079
:101CB000B401224200002142800121421000002094
:101CC0001200002014000020486F6D650000000025
:101CD000541A002054656D703A20202020204300C3
:101CE000050000200400002025642E25640000006B
:101CF00048756D693A20202020202525000000002D
:101D000003000020020000204C696768743A20201C
:101D100020202020204C780008000020252E31664D
:101D2000000000000948804709480047FEE7FEE739
:101D3000FEE7FEE7FEE7FEE7FEE7FEE7FEE7FEE77B
:101D400004480549054A064B704700008B07000808
:101D500031010008301C002030220020301E0020FD
:101D6000301E002010B50446CC48844208D1012121
:101D7000042000F02DFB0021042000F029FB46E0A8
:101D8000C748844208D10121082000F021FB00212E
:101D9000082000F01DFB3AE0C248844208D101212E
:101DA000102000F015FB0021102000F011FB2EE0A8
:101DB000BD48844208D10121202000F009FB002108
:101DC000202000F005FB22E0B848844208D1012120
:101DD000402000F0FDFA0021402000F0F9FA16E062
:101DE000B348844208D10121802000F0F1FA00219B
:101DF000802000F0EDFA0AE0AE48844207D10121CC
:101E0000801500F0E5FA0021A01500F0E1FA10BD00
:101E100010B50121084600F0DBFA0021012000F096
:101E2000D7FA10BD2DE9F04102460025002600201A
:101E300000230024002791F803C00CF00F0591F84F
:101E400003C00CF0100CBCF1000F03D091F802C0DD
:101E50004CEA050591F800C0BCF1000F31D01468C0
:101E600000202BE04FF0010C0CFA00F3B1F800C099
:101E70000CEA03069E4220D183004FF00F0C0CFAAF
:101E800003F7BC4305FA03FC4CEA040491F803C0D1
:101E9000BCF1280F06D14FF0010C0CFA00FCC2F87F
:101EA00014C00AE091F803C0BCF1480F05D14FF00F
:101EB000010C0CFA00FCC2F810C0401C0828D1D359
:101EC0001460B1F800C0BCF1FF0F34DD546800208D
:101ED0002EE000F1080C4FF0010808FA0CF3B1F8FD
:101EE00000C00CEA03069E4221D183004FF00F0C84
:101EF0000CFA03F7BC4305FA03FC4CEA040491F81E
:101F000003C0BCF1280F05D100F1080C08FA0CF849
:101F1000C2F8148091F803C0BCF1480F07D100F15A
:101F2000080C4FF0010808FA0CF8C2F81080401CA9
:101F30000828CED35460BDE8F0814FF6FF710180D0
:101F4000022181700421C17070470246002093680D
:101F50000B400BB1012000E000207047014688686B
:101F600080B2704702460020D3680B400BB10120BD
:101F700000E0002070470146C86880B270470161E8
:101F80007047416170470AB1016100E041617047EB
:101F9000C16070474FF480320A438261816182617F
:101FA00082698269704702460020434B18684FF6E9
:101FB0008073184040EA021008433F4B1860704796
:101FC0003E49C8617047F0B50A460023002400214D
:101FD000002500F00046B6F1004F02D1364EF169FF
:101FE00001E0354E7168C0F3034583B200F440163A
:101FF000B6F5401F08D121F070612F4E766826F0AB
:1020000070662D4F7E6012E000F48016B6F5801FDA
:1020100006D1032606FA05F4A14341F0706106E0FB
:10202000460D360103FA06F6B14341F0706122B164
:10203000460D360103FA06F6314300F00046B6F1CC
:10204000004F02D11C4EF16101E01B4E7160F0BDEA
:1020500030B500228B071C0F0F2303FA04F2164B36
:1020600008338C1053F824309343134C08348D10EC
:1020700044F8253023468C1053F824308C07240F65
:1020800000FA04F423430C4C08348D1044F8253036
:1020900030BD0A49DC31086070470000000801408B
:1020A000000C0140001001400014014000180140E4
:1020B000001C0140002001400000014000002042BF
:1020C000DF48006840F00100DD49086008464068CC
:1020D000DC490840DA49486008460068DA490840A7
:1020E000D74908600846006820F480200860084648
:1020F000406820F4FE0048604FF41F00886070477D
:10210000CF49096821F48031CD4A11601146096830
:1021100021F480211160B0F5803F03D0B0F5802F0D
:102120000ED106E0C649096841F48031C44A116005
:1021300007E0C349096841F4A021C14A116000E0E9
:1021400000BF00BF704710B50146002200230020E9
:102150004A11012A02D1BA4C236806E0022A02D1B0
:10216000B74C236A01E0B64C636A01F01F020124F8
:1021700094401C400CB1012000E0002010BD38B597
:10218000002000900024002500BF3120FFF7DBFF76
:1021900005460098401C00900098B0F5A06F01D053
:1021A000002DF2D03120FFF7CEFF08B1012400E06E
:1021B0000024204638BD01460020A14A106820F0C6
:1021C000F80040EAC10010607047A04908607047FD
:1021D000024600209A4B586820F47C1042EA010322
:1021E0001843974B586070479849086670470146F6
:1021F0000020934A506820F0030008435060704765
:102200008F48406800F00C007047014600208C4A5F
:10221000506820F0F00008435060704701460020ED
:10222000874A506820F4E0600843506070470146D8
:102230000020834A506820F4605040EAC10050609A
:10224000704729B17E4A527A02437D4B5A7204E0AC
:102250007B4A527A82437A4B5A7270477B49D83113
:102260000860704701460020754A506820F44040DD
:102270000843506070470021714A20321170704A43
:1022800082F82010012802D004280AD104E001219C
:102290006B4A2032117005E00521694A2032117025
:1022A00000E000BF00BF704769490860704764499B
:1022B000096A0143624A11627047654944390860FE
:1022C000704730B500210022002400235C4D6D686A
:1022D00005F00C0121B1042905D0082923D105E01E
:1022E0005C4D056022E05B4D05601FE0544D6D685C
:1022F00005F47012524D6D6805F48034022505EB2B
:1023000092421CB9544D554305600BE04C4D6D682D
:1023100005F400351DB1504D5543056002E04D4DAB
:102320005543056002E04B4D056000BF00BF444DC2
:102330006D6805F0F0010909484D6B5C0568DD40EA
:1023400045603F4D6D6805F4E061090A434D6B5CE3
:102350004568DD4085603A4D6D6805F46051C90AF5
:102360003E4D6B5C4568DD40C560354D6D6805F4DC
:102370004041890B3A4D6B5CC568B5FBF3F50561CF
:1023800030BD29B12E4A526902432D4B5A6104E0F7
:102390002B4A526982432A4B5A61704729B1284A15
:1023A00092690243264B9A6104E0254A926982436E
:1023B000234B9A61704729B1214AD2690243204BCD
:1023C000DA6104E01E4AD26982431D4BDA6170472C
:1023D00029B11B4AD2680243194BDA6004E0184A5B
:1023E000D2688243164BDA60704729B1144A1269E9
:1023F0000243134B1A6104E0114A12698243104BE5
:102400001A61704712494039086070470F49C86423
:1024100070470B49C87170470948406A40F08070A6
:1024200007494862704701460020054A92680A4001
:102430000AB1012000E0002070470149887270470E
:10244000001002400000FFF8FFFFF6FE00004242CD
:102450008004424200127A0000093D006E14002000
:102460007E14002010B50446FB48844209D10121A6
:102470008803FFF7ADFF00214FF48040FFF7A8FF6E
:1024800032E0F648844209D101214804FFF7ADFF4C
:1024900000214FF40030FFF7A8FF25E0F048844208
:1024A00009D101218804FFF7A0FF00214FF480200B
:1024B000FFF79BFF18E0EB48844209D10121C804D3
:1024C000FFF793FF00214FF40020FFF78EFF0BE092
:1024D000E548844208D101210805FFF786FF002165
:1024E0004FF48010FFF781FF10BD2DE9F04786B053
:1024F00005460E460024A24600BFA1460027B0892B
:1025000000B100BF2F462C8A4CF6FF700440F088C3
:1025100004432C82AC894EF6F3100440B088318914
:102520000843718908430443AC81AC8A4FF6FF40ED
:102530000440B0890443AC8201A8FFF7C2FEC6483C
:10254000874202D1DDF810A001E0DDF80CA0A889D7
:1025500000F4004040B10AEBCA0000EB0A103168F9
:102560004900B0FBF1F807E00AEBCA0000EB0A10E3
:1025700031688900B0FBF1F86420B8FBF0F0040189
:102580002009642101FB1089A88900F4004040B1B2
:10259000322000EBC900B0FBF1F000F0070004436B
:1025A00008E0322000EB09106421B0FBF1F000F0EC
:1025B0000F0004432C8106B0BDE8F0874FF416519C
:1025C000016000218180C18001810C2141810021B5
:1025D0008181704710B502460020108A4FF2FF0338
:1025E00018400B884C8823438C882343CC88234392
:1025F0001843108210BD0021018041808180C1807C
:10260000704721B1828942F40052828104E08289BC
:102610004DF6FF731A4082817047F0B503460024DF
:1026200000260025002040F66A17B94200D100BFFD
:102630001846C1F3421401F01F06012707FA06F5F8
:10264000012C01D10C3004E0022C01D1103000E04B
:1026500014301AB107682F43076002E00768AF43E0
:102660000760F0BD1AB1838A0B43838202E0838A3C
:102670008B4383827047028A4FF6F0731A400282BE
:10268000028A0A430282704782894FF2FF731A401E
:10269000828182890A438281704721B1828942F016
:1026A0000202828104E082894FF6FD731A40828122
:1026B0007047028A4FF6DF731A400282028A0A4389
:1026C0000282704721B1028A42F48042028204E011
:1026D000028A4BF6FF731A4002827047C1F3080268
:1026E0008280704701468888C0F30800704781895E
:1026F00041F0010181817047028BD2B20283028BCB
:1027000042EA012202837047028B02F47F42028375
:10271000028B0A430283704721B1828A42F0200271
:10272000828204E0828A4FF6DF731A408282704709
:1027300021B1828A42F01002828204E0828A4FF63E
:10274000EF731A408282704721B1828A42F00802F8
:10275000828204E0828A4FF6F7731A4082827047C1
:1027600021B1828942F40042828103E08289C2F36E
:102770000E028281704721B1828A42F40062828215
:1027800004E0828A4FF2FF731A4082827047828A85
:102790004FF6FB731A408282828A0A438282704714
:1027A00021B1828A42F00202828204E0828A4FF6DC
:1027B000FD731A408282704702460020B1F5007F07
:1027C00000D100BF13880B400BB1012000E00020B6
:1027D000704701F40072B2F5007F00D100BFCA4318
:1027E0000280704770B502460024002300250020B7
:1027F00040F66A16B14200D100BFC1F3421501F0A4
:102800001F03012606FA03F3012D02D196893340F6
:1028100006E0022D02D1168A334001E0968A334049
:102820000C12012606FA04F41688344013B10CB1D8
:10283000012000E0002070BD10B50022002340F60A
:102840006A14A14200D100BF0A1201249440A3B22D
:10285000DC43048010BD000000380140004400400B
:1028600000480040004C0040005000403149014306
:10287000314A1160704770B5002100230F22C478DF
:1028800004B32D4C246804F4E064C4F5E064210A28
:10289000C1F10403CA40447804FA03F18478144077
:1028A00021430901254C0678A155047804F01F0541
:1028B0000124AC4005786D11AD0005F1E025C5F8A7
:1028C000004109E0047804F01F050124AC401C4DD0
:1028D0000678761145F8264070BD1A4A0A40024330
:1028E000154B1B1F1A60704739B1134A121D12682D
:1028F0000243114B1B1D1A6006E00F4A121D12689D
:1029000082430D4B1B1D1A607047042808D14FF0FD
:10291000E021096941F004014FF0E022116107E074
:102920004FF0E021096921F004014FF0E02211612C
:10293000704700000000FA050CED00E000E400E044
:1029400080E100E080FFFF1F10B50446FE4884428E
:1029500008D10121C014FFF73BFD0021E014FFF76F
:1029600037FDC4E0B4F1804F08D101210846FFF7DC
:102970003CFD00210120FFF738FDB8E0F348844218
:1029800008D101210220FFF730FD00210220FFF7CE
:102990002CFDACE0EE48844208D101210420FFF771
:1029A00024FD00210420FFF720FDA0E0E948844237
:1029B00008D101210820FFF718FD00210820FFF7AA
:1029C00014FD94E0E448844208D101211020FFF76F
:1029D0000CFD00211020FFF708FD88E0DF4884424D
:1029E00008D101212020FFF700FD00212020FFF762
:1029F000FCFC7CE0DA48844208D101214014FFF756
:102A0000E7FC00216014FFF7E3FC70E0D548844246
:102A100009D10121C804FFF7DBFC00214FF400209D
:102A2000FFF7D6FC63E0D048844209D101210805B4
:102A3000FFF7CEFC00214FF48010FFF7C9FC56E0F1
:102A4000CA48844209D101214805FFF7C1FC002191
:102A50004FF40010FFF7BCFC49E0C548844208D1A0
:102A600001214020FFF7C1FC00214020FFF7BDFC01
:102A70003DE0C048844208D101218020FFF7B5FC29
:102A800000218020FFF7B1FC31E0BB48844208D12F
:102A900001218015FFF7A9FC0021A015FFF7A5FC77
:102AA00025E0B648844209D101210804FFF790FCD3
:102AB00000214FF48030FFF78BFC18E0B0488442CF
:102AC00009D101214804FFF783FC00214FF40030B5
:102AD000FFF77EFC0BE0AB48844208D1012188045B
:102AE000FFF776FC00214FF48020FFF771FC10BD4A
:102AF00000220288944B98420ED0994B98420BD0FA
:102B0000B0F1804F08D0914B984205D0904B98423D
:102B100002D0904B984204D14FF68F731A404B88E5
:102B20001A438D4B984207D08C4B984204D04FF6F5
:102B3000FF431A40CB881A4302808B8883850B8819
:102B40000385814B98420BD0854B984208D08B4B24
:102B5000984205D08A4B984202D08A4B984201D1C4
:102B60000B7A038601238382704770B5002400220C
:102B70000023058C4FF6FE7635400584028C838851
:102B8000048B4FF68F752C40B51E2C400D882C43BE
:102B9000751E2A400D892A434D882A436A4DA84252
:102BA0000BD06F4DA84208D0744DA84205D0744D8B
:102BB000A84202D0734DA84213D14FF6F7752A40B0
:102BC0004D892A434FF6FB752A408D882A434FF6DC
:102BD000FF652B404FF6FF552B408D892B43CD8948
:102BE0002B4383800483CD888586028470BD70B5B5
:102BF000002400220023058C4FF6EF763540058433
:102C0000028C8388048B48F6FF752C404FF6FF45F5
:102C10002C400D884FF6FF7606EA05252C434FF62B
:102C2000DF752A400D8906EA05152A434D8806EA14
:102C300005152A43444DA84202D0494DA8421DD152
:102C40004FF67F752A404D894FF6FF7606EA051547
:102C50002A434FF6BF752A408D8806EA05152A4398
:102C60004FF6FF352B404FF2FF752B408D8906EA5A
:102C700085052B43CD8906EA85052B438380048394
:102C8000CD880587028470BD70B500240022002322
:102C9000058C4FF6FF6635400584028C8388848B53
:102CA0004FF68F752C404FF6FC752C400D882C4349
:102CB0004FF6FF552A400D894FF6FF7606EA0525A7
:102CC0002A434D8806EA05252A431F4DA84202D013
:102CD000234DA8421DD14FF2FF752A404D894FF672
:102CE000FF7606EA05252A434FF6FF352A408D88F0
:102CF00006EA05252A434EF6FF752B404DF6FF7573
:102D00002B408D8906EA05152B43CD8906EA05156A
:102D10002B4383808483CD888587028470BD70B502
:102D2000002200230024058C4EF6FF7635400584F2
:102D3000038C8488828B48F6FF752A404FF6FF4546
:102D40002A400D8820E00000002C014000040040D3
:102D500000080040000C004000100040001400403B
:102D600000340140004C014000500140005401403B
:102D700000180040001C00400020004000400140BE
:102D800000440140004801404FF6FF7606EA052561
:102D90002A434DF6FF752B400D8906EA05352B4376
:102DA0004D8806EA05352B43FA4DA84202D0FA4D6C
:102DB000A84208D14BF6FF752C408D894FF6FF765F
:102DC00006EA85152C4384808283CD88A0F8405084
:102DD000038470BD828B4FF2FF331A408283828B53
:102DE0004FF6FF7303EA01231A4382837047F0B55D
:102DF0000C461546002200210026078C4EF6FF7C6B
:102E000007EA0C070784828B018C4FF6FF7707EAED
:102E1000043640F6FF473A404FF6FF7707EA0527AA
:102E20003A434FF6FF7707EA03373A43D94FB842A0
:102E30000ED0D94FB8420BD0B0F1804F08D0D74F49
:102E4000B84205D0D64FB84202D0D64FB84206D1CC
:102E50004DF6FF77394046F48057394305E047F691
:102E6000FF57394044F48057394382830184F0BDD1
:102E7000828B4FF6F3731A408283828B0A438283DC
:102E80007047F0B50C461546002200210026078C3D
:102E90004FF6FF6C07EA0C070784828B018C4FF614
:102EA000FF7707EA04264FF60C773A404FF6FF7794
:102EB00007EA03172F433A43B64FB8420ED0B64F36
:102EC000B8420BD0B0F1804F08D0B44FB84205D013
:102ED000B34FB84202D0B34FB84206D14FF6FF57B6
:102EE000394046F48077394305E04FF2FF573940C7
:102EF00044F48077394382830184F0BD028B4FF222
:102F0000FF331A400283028B4FF6FF7303EA01235B
:102F10001A4302837047F0B50C4615460022002183
:102F20000026078C4FF6EF7C07EA0C070784028B1C
:102F3000018C4FF6FF7707EA041640F6FF473A4048
:102F40004FF6FF7707EA03373A434FF6FF7707EA72
:102F500005273A438F4FB8420ED08F4FB8420BD05F
:102F6000B0F1804F08D08D4FB84205D08C4FB84299
:102F700002D08C4FB84206D14FF6DF77394046F089
:102F80001007394305E04FF65F77394044F01007EA
:102F9000394302830184F0BD028B4FF6F3731A406C
:102FA0000283028B0A4302837047F0B50C46154634
:102FB00000220021068C4FF6FE773E400684028BED
:102FC000018C4FF60C7632407E1C06EA03162E4327
:102FD0003243704EB0420ED06F4EB0420BD0B0F1C3
:102FE000804F08D06D4EB04205D06D4EB04202D039
:102FF0006C4EB04206D14FF6FD76314044F00106EA
:10300000314305E04FF6F576314044F00106314397
:1030100002830184F0BD70B505460C465D488542CB
:103020000ED05D4885420BD0B5F1804F08D05B488B
:10303000854205D05A48854202D05A48854200D17F
:1030400000E000BF208850B92389A2886188284603
:10305000FFF7ABFFE1882846FFF79EFF25E02088B9
:1030600004280AD12389A28861882846FFF753FFE4
:10307000E1882846FFF742FF17E0208808280AD198
:103080002389A28861882846FFF7FBFEE18828464D
:10309000FFF7EEFE09E02389A28861882846FFF742
:1030A000A6FEE1882846FFF795FE70BD2DE9F041A8
:1030B00005460C4600260127608808B9022600E074
:1030C0000026A088012801D1022700E001272088DE
:1030D000A0B92389A28861882846FFF766FFE188A6
:1030E0002846FFF759FF23893A4631462846FFF71D
:1030F00012FFE1882846FFF701FF13E02389A28829
:1031000061882846FFF707FFE1882846FFF7F6FEAB
:1031100023893A4631462846FFF747FFE18828468B
:10312000FFF73AFFBDE8F0810A884B881A438B8885
:103130001A43CB881A430B891A434B891A438B894C
:103140001A43A0F8442070474FF6FF718180002198
:103150000180C1804180017270470021018041805F
:103160008180C180018141818181C18170470021BD
:1031700001804180012181800021C180018170474F
:103180000021018041808180C18001814181818154
:1031900070470000002C0140003401400004004052
:1031A00000080040000C004021B1028842F00102FA
:1031B000028004E002884FF6FE731A4002807047D6
:1031C00031B1B0F8442042F40042A0F8442005E0B8
:1031D000B0F84420C2F30E02A0F8442070471AB1A0
:1031E00083890B43838102E083898B43838170470A
:1031F0008182704741EA0203A0F8483070471AB153
:1032000083890B43838102E083898B4383817047E9
:1032100001894FF6F8721140018170470A4600217A
:1032200001894FF68F73194011430181704730B502
:1032300004460D4629462046FFF7F0FF208940F05E
:103240000700208130BD2DE9F04104460D461646A9
:103250001F46602D06D13B46012231462046FFF72E
:103260005AFE05E03B46012231462046FFF79DFE0F
:1032700029462046FFF7D2FF208940F00700208131
:10328000BDE8F08130B50C4600210189C9B24FF686
:10329000FF7505EA0325154325432943018130BD08
:1032A0002DE9F04105460E46174698460024434650
:1032B0003A4631462846FFF7E5FF2C894FF6F8706D
:1032C000044044F007044FF68F70044044F070044B
:1032D0002C81BDE8F081F0B504460D4616461F4628
:1032E0003B46324629462046FFF7CCFF208940F472
:1032F00080402081F0BD0185828270470A4600210E
:1033000001884FF68F731940114301807047F0B563
:103310000C4615461E460021002200230189028B1F
:10332000038C4FF6F877394021434FF6FC473A407B
:1033300040F201173A434FF6DD773B404FF6FF77F7
:1033400007EA06172F433B43018102830384F0BD44
:103350000A460021018B4FF68F73194011430183F8
:1033600070470A460021018B48F6FF7319404FF65B
:10337000FF7303EA02231943018370470A460021C1
:10338000818B4FF68F7319401143818370470A4632
:103390000021818B48F6FF7319404FF6FF7303EA53
:1033A000022319438183704721B1028842F08002D1
:1033B000028004E002884FF67F731A400280704753
:1033C00021B1828842F00402828004E082884FF6B4
:1033D000FB731A408280704721B1828842F0080254
:1033E000828004E082884FF6F7731A40828070472B
:1033F00021B1828842F00102828004E082884FF687
:10340000FE731A40828070470A460021018B4FF6F6
:10341000F77319401143018370470A460021018B5D
:103420004FF2FF7319404FF6FF7303EA022319436B
:10343000018370470A460021818B4FF6F7731940CC
:103440001143818370470A460021818B4FF2FF733D
:1034500019404FF6FF7303EA022319438183704733
:103460000A460021018B4FF6FB731940114301837B
:1034700070470A460021018B4FF6FF3319404FF683
:10348000FF7303EA02231943018370470A460021B0
:10349000818B4FF6FB7319401143818370470A46B5
:1034A0000021818B4FF6FF3319404FF6FF7303EA7B
:1034B00002231943818370470A460021018B4FF68E
:1034C0007F7319401143018370470A460021018B25
:1034D000C1F30E014FF6FF7303EA02231943018380
:1034E00070470A460021818B4FF67F7319401143C4
:1034F000818370470A460021818BC1F30E014FF68C
:10350000FF7303EA02231943818370470A460021AF
:10351000018C4FF6FD7319401143018470470A4630
:103520000021018C4FF6F773194011430184704755
:103530000A460021018C4FF6DF7319404FF6FF73E6
:1035400003EA02131943018470470A460021018CE3
:103550004FF67F7319404FF6FF7303EA02131943C6
:10356000018470470A460021018C4FF6FF53194031
:103570004FF6FF7303EA02231943018470470A469A
:103580000021018C4FF2FF7319404FF6FF7303EADD
:1035900002231943018470470A460021018C4DF62D
:1035A000FF7319404FF6FF7303EA02331943018496
:1035B000704730B5002301248C40A3B2048C9C4397
:1035C0000484048C02FA01F5ADB22C43048430BDAE
:1035D00030B5002304248C40A3B2048C9C430484A3
:1035E000048C02FA01F5ADB22C43048430BD70B5F1
:1035F0000346002000241846183001258D40ACB247
:103600001D8CA5431D8409B1082909D100EB610077
:10361000056825F0700505600568154305600EE036
:103620000D1FC5F34E052844056825F4E0450560E7
:1036300005684FF6FF7606EA02263543056070BD41
:1036400021B1028842F00202028004E002884FF6B3
:10365000FD731A400280704721B1028842F00402D3
:10366000028004E002884FF6FB731A400280704724
:1036700021B1828842F08002828004E082884FF685
:103680007F731A408280704702884FF6F7731A40A2
:10369000028002880A430280704782884FF68F7347
:1036A0001A40828082880A438280704702894FF6DE
:1036B000F8731A40028102890A4302817047028925
:1036C0004FF67F731A40028102890A4302817047D4
:1036D0008184704781857047818670470187704774
:1036E00081877047A0F84010704702884FF6FF436B
:1036F0001A40028002880A43028070470146888E81
:1037000070470146088F70470146888F7047014611
:10371000B1F8400070470146888C70470146088D1B
:10372000704702460020138A0B400BB1012000E0D5
:1037300000207047CA430282704730B5024600201D
:1037400000230024158A05EA0103958905EA01048E
:1037500013B10CB1012000E0002030BDCA43028249
:103760007047000010B58021914803F012FD002041
:103770009049088010BD8F48008808B90120704723
:103780008C4800888C490988884203D100208949E7
:103790000880F4E787480088874908800120EEE721
:1037A0002DE9F04104460D46C826204603F010FCE2
:1037B00087B23A4621468148FEF7CAF80FE0FFF784
:1037C000DAFF48B929467A4803F0CCFB20B1FFF76D
:1037D000C9FF0020BDE8F0810A20FDF798FF301EE8
:1037E000A6F10101CEB2EAD10120F3E730B589B0EC
:1037F00004460D46FFF7B6FF2A4671A101A803F063
:10380000B9F973A101A8FFF7CBFF20B92A462146D9
:103810006A48FEF79DF809B030BD70B50546002432
:1038200000BFFFF7A8FF80B96AA1614803F09AFBC7
:10383000044654B13A21204603F078FB044614B103
:10384000641C204670BD0020FCE70520FDF75FFFEB
:10385000681E85B2002DE4DC0020F3E708B50121E5
:103860000420FEF79BFD10208DF803008002ADF8C8
:10387000000003208DF8020069465848FEF7D2FA8E
:1038800000224FF480415548FEF77DFBFA20FDF7FA
:103890003EFF012291035148FEF775FB4FF4FA7089
:1038A000FDF735FFFFF75EFF4DA14F48FEF769F8C2
:1038B00003E04FF4FA70FDF72AFF4CA14CA0FFF78C
:1038C0006FFF0028F5D14CA14748FEF75AF842A1F6
:1038D0004CA0FFF765FF4FF4FA70FDF718FF3EA10B
:1038E0004BA0FFF75DFF4FF4FA70FDF710FF4CA1FE
:1038F0003D48FEF746F803E04FF4FA70FDF707FF86
:103900003AA14AA0FFF74CFF0028F5D14BA1364859
:10391000FEF737F803E04FF4FA70FDF7F8FE33A135
:103920004AA0FFF73DFF0028F5D14CA12E48FEF735
:1039300028F803E04FF4FA70FDF7E9FE4AA14CA025
:10394000FFF72EFF0028F5D151A12748FEF719F8FF
:1039500003E04FF4FA70FDF7DAFE51A152A0FFF731
:103960001FFF0028F5D15AA11F48FEF70AF808BD2D
:1039700010B540F225511148FEF734FFB0B10D48A3
:103980000088802802D300200A4908800B48001DC7
:103990000088C1B2074802880088401C054B188087
:1039A0000348815420210548FEF713FF10BD000095
:1039B000681A002082140020841400200044004073
:1039C00041542B43495053454E443D25640D0A0054
:1039D0003E0000004950442C00000000001001404F
:1039E000302E2041540D0A00003801404F4B00009A
:1039F00041540D0A00000000312E205253540D0A8C
:103A00000000000041542B5253540D0A00000000E6
:103A100041542B434950434C4F53450D0A0000007D
:103A2000322E2043574D4F44450D0A0041542B433D
:103A3000574D4F44453D310D0A000000332E2041C3
:103A4000542B4357444843500D0A000041542B4324
:103A500057444843503D312C310D0A00342E204349
:103A6000574A41500D0A0000474F5420495000006A
:103A700041542B43574A41503D226D69616E6D613F
:103A8000222C226D6D6D6D6D6D6D6D220D0A000025
:103A9000352E2043495053544152540D0A00000022
:103AA000434F4E4E4543540041542B4349505354C9
:103AB0004152543D22544350222C2279656C6C6F44
:103AC00077687A782E636E222C313838330D0A00ED
:103AD000362E204553503832363620496E697420D0
:103AE0004F4B0D0A0000000070B504460E4600253D
:103AF000206898B901202073304602F0BDFF206095
:103B00002068E0B100206060A66003E0002021682A
:103B100048556D1CA068A842F8D810E00220207318
:103B200003E00020216848556D1CA068A842F8D821
:103B300000206060A068B04201D20020206070BD0B
:103B400010B50446207B012802D1206802F0C3FF93
:103B5000002020606060A060207310BD024600233A
:103B600001230DE002F07F000870D2092AB1087825
:103B700040F080000870491C01E0184670475B1C4B
:103B8000042BEFDD4FF0FF30F8E7F0B504460D46AB
:103B90002646012300201060002114E0775C07F026
:103BA0007F07106807FB03001060705C00F0800066
:103BB00008B9481CF0BDDB01B3F5001F02D36FF05C
:103BC0000100F7E7491CA942E8DB4FF0FF30F1E7BD
:103BD000F8B50446FF2720780511012D01DB0E2DD5
:103BE00001DD3846F8BD032D24D1002000906A463F
:103BF0000421601CFFF7C9FF2044461C00980228DE
:103C000003D3207800F0010008B1FF20EAE77078C4
:103C1000317840EA0120801C0099884201D9FF20B8
:103C2000E0E7F8A1B01C03F09DF908B10F2700E010
:103C3000032700E02F463846D4E72DE9FF4F83B035
:103C400082468B469146159C0025002002900F2746
:103C50000190484603F0BCF90FFA80F8B9F1000F63
:103C600003D1012007B0BDE8F08F08F1020038440D
:103C700087B2109808B145F00205129878B145F066
:103C80000405129803F0A4F9C0B20290139803F04F
:103C90009FF901460298001D0844384487B21198E4
:103CA00020B1012804D0022808D104E000BF07E0B9
:103CB00045F00C0504E045F0140501E00220D1E7D1
:103CC00000BF149808B145F02405BAF1000F02D0E6
:103CD000BBF1000F01D10320C4E745F0C0055046F9
:103CE00003F076F90646584603F072F93044001D99
:103CF000384487B239462046FFF7F6FE206808B9F7
:103D00000420AFE73946206803F043FA10216268C7
:103D1000501C606020688154D4E90023D118781FBA
:103D2000FFF71CFF00B201900198002804DA20463A
:103D3000FFF706FF052095E7616801980844606079
:103D400000216268501C6060206881540421626810
:103D5000501C6060206881544D216268501C606076
:103D60002068815451216268501C60602068815431
:103D700054216268501C6060206881546268501C45
:103D800060602068815404216268501C6060206873
:103D900081546168481C6060206845540698010A97
:103DA0006268501C6060206881540698C1B26268E5
:103DB000501C606020688154C8F307216268501C61
:103DC0006060206881546268501C6060206800F860
:103DD0000280D4E9001288184246494603F0B0F840
:103DE00060684044606005F00400B8B30026139892
:103DF00008B986A01390129803F0EAF886B2310A47
:103E00006268501C6060206881546268501C606069
:103E100020688654D4E9001288183246129903F0BB
:103E20008FF8606830446060139803F0D1F886B270
:103E3000310A6268501C6060206881546268501CBE
:103E4000606020688654D4E90012881832461399BD
:103E500003F076F860683044606000BF05F08000D1
:103E6000C8B1504603F0B4F886B2310A6268501CFB
:103E70006060206881546268501C606020688654CD
:103E8000D4E9001288183246514603F059F86068A8
:103E90003044606000BF05F04000C8B1584603F0F0
:103EA00097F886B2310A6268501C606020688154BD
:103EB0006268501C606020688654D4E9001288183B
:103EC0003246594603F03CF860683044606000BFF9
:103ED0000020C7E610B5044602212046FFF704FE85
:103EE000206808B9012010BDE0216268501C6060A4
:103EF0002068815400216268501C606020688154F1
:103F00000020F0E701464878022801D001207047E0
:103F1000887810B18878012801D1C878F7E7FF20A8
:103F2000F5E72DE9FF4F83B0834617469946139C6A
:103F3000002500260020029001908046BBF1000F72
:103F400003D1012007B0BDE8F08F00260AE00498F5
:103F5000805D232803D00498805D2B2801D10220A6
:103F6000F0E7761C0498805D0028F0D148F0300816
:103F7000119808B148F0010806EB0900851C10985B
:103F800020B1012804D002280AD105E000BF09E0D1
:103F900048F00208AD1C05E048F00408AD1C01E043
:103FA0000320CFE700BF67B33878022821D14FF054
:103FB000000A00BF50460AF1010A385C7D28F9D199
:103FC000AAF1030A0AF1070002900298A9EB000A7D
:103FD000E81CA0EB0A012046FFF786FD206808B91F
:103FE0000420AFE7EA1CA2EB0A01206803F0D1F835
:103FF0001FE0691D2046FFF777FD206840B90420C7
:10400000A0E70AE024637265710000000000000070
:10401000691D206803F0BDF80BE0691D2046FFF71D
:1040200063FD206808B904208CE7691D206803F04F
:10403000B0F86168481C6060206800F80180D4E92D
:10404000000281182846FFF789FD01900198002899
:1040500004DA2046FFF774FD052073E761680198D4
:1040600008446060C6F307216268501C60602068E5
:1040700081546268501C606020688654D4E9001244
:1040800088183246049902F05BFF60683044606033
:10409000109860B14FEA1B216268501C6060206874
:1040A00081546268501C6060206800F802B0C7B19B
:1040B000387802280BD1D4E9001288183946029AC0
:1040C00002F0F0FF616802980844606009E0D4E9FA
:1040D000001288184A46394602F0E4FF60684844F6
:1040E000606000202EE72DE9FF4107460D4690460F
:1040F0001E460A9C01200021CDE90001EB1C0A4666
:10410000FAA1CDE902040A20FFF70BFF88B9616824
:10411000481C606020684654C5F307216268501C43
:104120006060206881546268501C6060206885541B
:1041300003E0012004B0BDE8F0810020FAE72DE99A
:10414000F04F85B080460D4691460120049000272F
:10415000002600244FF0000A404602F039FF00F12B
:104160000D0B584602F088FC07461FB9049805B0AD
:10417000BDE8F08F4246DEA1384602F0FBFC38462F
:1041800002F026FFC6B2F01D00EB050AAAEB0500FF
:1041900002F072FC044624B9384602F09CFC0498F4
:1041A000E5E70220207000206070A6703246394694
:1041B000E01C02F077FF290EF01C2154C5F30741E3
:1041C000301D2154C5F30721701D2154B01D255405
:1041D00001200021CDE9000153462246C3A1CDE9CB
:1041E00002090A20FFF79DFE08B900200490384616
:1041F00002F071FC204602F06EFC0498B7E72DE94E
:10420000F84380460C4615461E462F2108F106004D
:1042100002F08CFE07460020009017B90120BDE88F
:10422000F8837F1C6A46042108F10100FFF7ADFC0A
:10423000252002F021FC2060206808B90220EEE76A
:104240002521206802F0A5FF24223946206802F0CB
:1042500029FF243700982C3830803188481C02F020
:104260000BFC2860286820B9206802F034FC032089
:10427000D5E73288511C286802F08BFF3288394616
:10428000286802F00FFF0020C9E72DE9FF5F07460D
:104290000D469046384602F09BFE86B2284602F054
:1042A00097FE1FFA80FA4FF00009F01D02F0E4FBC0
:1042B00004461CB9012004B0BDE8F09FF11D204662
:1042C00002F067FF8EA0016821608088A0803246DE
:1042D0003946204602F034FE284602F079FE834635
:1042E0000120002100915B462A46CDE90208019198
:1042F00021460A20FFF715FE10B94FF0000901E032
:104300004FF00109204602F0E6FB4846D3E72DE9CD
:10431000FF5F8046174699460E9C0026B246B3467C
:104320000025B8F1000F03D1012004B0BDE8F09FD3
:104330000BE057F8250008B90220F6E757F82500EA
:1043400002F046FE0644681CC5B24D45F1DB09EBA0
:104350004900801C00EB060A0AF105012046FFF720
:10436000C3FB206808B90320DFE782216268501C84
:10437000606020688154D4E9000281185046FFF73C
:10438000EDFB0FFA80FBBBF1000F04DA2046FFF7CC
:10439000D7FB0420C9E76068584460604FEA1821E1
:1043A0006268501C6060206881546268501C6060C4
:1043B000206800F80280002524E057F8250002F06C
:1043C00007FE0646C6F307216268501C606020683D
:1043D00081546268501C606020688654D4E90023D0
:1043E000D01857F82510324602F0AAFD6068304414
:1043F00060600198C1B26268501C6060206881549E
:10440000681CC5B24D45D8DB00208EE70146FF2071
:104410008A78A2B9CA78142A11D10A7932B1012A4C
:1044200005D0022A04D0802A06D103E000BF00BFD5
:10443000002003E0012001E0022000BF00BF704720
:104440002DE9F05F80460F4691461C460026B24695
:10445000B3460025B8F1000F02D10120BDE8F09F5E
:104460000BE057F8250008B90220F7E757F82500B8
:1044700002F0AEFD0644681CC5B24D45F1DB0220DA
:1044800000EB490000EB060A0AF105012046FFF7A0
:104490002BFB206808B90320E0E7A2216268501CCA
:1044A000606020688154D4E9000281185046FFF70B
:1044B00055FB0FFA80FBBBF1000F04DA2046FFF733
:1044C0003FFB0420CAE76068584460604FEA182147
:1044D0006268501C6060206881546268501C606093
:1044E000206800F8028000252CE0000024647000A1
:1044F0007B2264735F6964223A222573227D000067
:1045000024637273702F000057F8250002F060FDDD
:104510000646C6F307216268501C6060206881541B
:104520006268501C606020688654D4E90023D0186B
:1045300057F82510324602F003FD60683044606091
:10454000681CC5B24D45DFDB002087E7014601202E
:104550008A781AB9CA781E2A00D1002070472DE93E
:10456000FC5F81460D4614461E46DDE90C8B99F82A
:10457000000000F00F0A002001900AF008000090EF
:10458000CAF341008BF8000001AA042109F10100DF
:10459000FFF7FBFA4844471C0198022802D30AF0AF
:1045A000010010B1FF20BDE8FC9F7878397840EA1F
:1045B000012020802088801C0199884201D9FF2099
:1045C000F1E7AFF2C051B81C02F0CCFC08B10F20EB
:1045D000E9E79BF8000020B101283DD0022877D1FF
:1045E0003BE0009808B1FF20DDE72188481C02F07D
:1045F00043FA2860286808B9FF20D4E72288511CB4
:10460000286802F0C6FD2288B91C286802F04AFD1D
:104610000198801E2188401AA8F80000B8F8001000
:10462000481C02F029FA3060306820B9286802F08E
:1046300052FAFF20B7E7B8F80020511C306802F0AA
:10464000A8FDB8F80020B4F800C0BB1C0CEB0301B7
:10465000306802F027FD4FE000BF2088801C0199E0
:10466000884201D9FF209EE72088C01C395C208841
:10467000801C385C41EA00210E9801800E9808B930
:10468000FF2090E72188481C02F0F6F9286028688E
:1046900008B9FF2087E72288511C286802F079FDBD
:1046A0002288B91C286802F0FDFC0198001F2188AF
:1046B000401AA8F80000B8F80010481C02F0DCF915
:1046C0003060306828B9286802F005FAFF206AE7F0
:1046D00010E0B8F80020511C306802F05AFDB8F81C
:1046E0000020B4F800C03B1D0CEB0301306802F061
:1046F000D9FC01E0FF2056E700BF2B21284602F03D
:1047000015FC20B92321284602F010FC08B1FF2037
:1047100049E7002047E770B505460C4604212046CE
:10472000FFF7E2F9206808B9012070BD40216268F6
:10473000501C60602068815402216268501C6060D7
:104740002068815429126268501C6060206881547E
:104750006268501C6060206885540020E5E70146CF
:104760004878022801D001207047887820B9C8789D
:104770000A2801D10020F7E70120F5E770B50546CA
:104780000C4604212046FFF7AFF9206808B9012044
:1047900070BD50216268501C606020688154022105
:1047A0006268501C60602068815429126268501C45
:1047B0006060206881546268501C60602068855485
:1047C0000020E5E701464878022801D00120704723
:1047D000887820B9C8780A2801D10020F7E701209D
:1047E000F5E770B505460C4604212046FFF77CF935
:1047F000206808B9012070BD62216268501C6060A9
:104800002068815402216268501C606020688154D5
:1048100029126268501C6060206881546268501CD4
:104820006060206885540020E5E702465078022841
:1048300001D0012070479078B0EB112F05D1D078CE
:10484000CBB2984201D10020F4E70120F2E770B525
:1048500005460C4604212046FFF746F9206808B9B2
:10486000012070BD70216268501C60602068815416
:1048700002216268501C60602068815429126268BD
:10488000501C6060206881546268501C6060206821
:1048900085540020E5E701464878022801D0012030
:1048A0007047887820B9C8780A2801D10020F7E736
:1048B0000120F5E710B5044602212046FFF714F960
:1048C000206808B9012010BDC0216268501C6060DA
:1048D0002068815400216268501C60602068815407
:1048E0000020F0E730B58BB00020079008900990C9
:1048F0000A900125E1A0E1A3E0A2E2A10090ED4829
:10490000FDF73FF807A8002102910391CDE90410BB
:1049100000912B02D9A20191D8A1D8A0FFF78DF95F
:10492000002842D1089A91B20798FEF75FFFFA205B
:10493000FEF773FF0446002C33D02046FFF748F9FA
:1049400002282ED12046FFF7DDFA062823D2DFE821
:1049500000F003090E13181DD7A1D648FDF711F872
:1049600000251DE0D9A1D348FDF70BF818E0DEA122
:10497000D048FDF706F813E0E4A1CE48FDF701F8B2
:104980000EE0EAA1CB48FCF7FCFF09E0F0A1C94822
:10499000FCF7F7FF04E0F9A1C648FCF7F2FF00BFFF
:1049A00000BF07A8FFF7CCF803E0FBA1C148FCF764
:1049B000E8FF28460BB030BD70B586B004460D4602
:1049C00000260020029003900490059007E054F820
:1049D0002620FAA1B748FCF7D4FF701CC6B2AE423D
:1049E000F5DB02A82B462246022100901420FFF797
:1049F0008EFC38B9039A91B20298FEF7F7FE02A82E
:104A0000FFF79EF806B070BD70B588B005460C463D
:104A10000020049005900690079023462A46EDA1B9
:104A2000A448FCF7AEFF204602F0D2FA064604A8DE
:104A3000012100220223CDE90032CDE902103346E4
:104A4000224629460A20FFF76CFA38B9059A91B236
:104A50000498FEF7CBFE04A8FFF772F808B070BD0B
:104A60002DE9F04F8FB0814600200B900C900D90F7
:104A70000E900A9009900890079000270690002653
:104A8000002582464846FFF7A3F80746F81E0D2882
:104A900079D2DFE800F01A828AA2BCDCC4DCD0DC68
:104AA000DCDC070007AB0AAA09A94846FFF7A7FB09
:104AB00006464EB9BDF81C30CEA0DDE90912FCF760
:104AC00084FF0BA8FFF73CF8C4E0D34806A907AA67
:104AD0000AABCDE90021029008AA09A94846FFF7D0
:104AE0003EFD0646002E57D1BDF81C000090BDF8D3
:104AF0002020CAA0DDE90913FCF767FF0A9801F03E
:104B0000DDF88046B8F1000F08D100F073FA834653
:104B10005A46D1A16748FCF734FF3AE0D3A140469A
:104B200001F0D3FC0446D3A16248226AFCF729FFB6
:104B3000D0A160482269FCF724FFD3A1206902F0CC
:104B400011FA70B1D1A1404601F0BFFC0446606982
:104B500018B10020CF4908601BE00120CD49086052
:104B600017E0CDA1206902F0FDF990B1C7A1404640
:104B700001F0ABFC0446606930B10120C8490870FF
:104B8000C849087005E062E00020C5490870C549C1
:104B90000870404600F090FA5CE04846FFF7DFFD01
:104BA00010B9C1A0FCF711FF54E04846FFF70AFE18
:104BB00090B9C5A0FCF709FF0BA90A20FFF711FE69
:104BC00050B9C7A0FCF701FF0C9A91B20B98FEF701
:104BD0000DFE0BA8FEF7B4FF3CE08F480188484665
:104BE000FFF723FE90B9C4A0FCF7EFFE0BA90A2043
:104BF000FFF72DFE50B9C6A0FCF7E7FE0C9A91B264
:104C00000B98FEF7F3FD0BA8FEF79AFF22E048464B
:104C1000FFF741FE10B9C5A0FCF7D7FE1AE04846E1
:104C2000FFF7F4FB18B9C7A0FCF7CFFE02E0CCA059
:104C3000FCF7CBFE0EE04846FFF788FC18B9CFA082
:104C4000FCF7C3FE02E0D4A0FCF7BFFE02E04FF089
:104C5000FF3600BF00BFFEF785FD701C10B90FB016
:104C6000BDE8F08F7D210A9802F060F905461DB17C
:104C7000701C08B16D1CA6E1AFE10000686F6D65A6
:104C8000310000004F6E654E65745F4465764C6977
:104C90006E6B0D0A50524F49443A2025732C09413E
:104CA0005549463A2025732C0944455649443A252E
:104CB000730D0A0000380140546970733A09C1ACA1
:104CC000BDD3B3C9B9A60D0A000000005741524E2A
:104CD0003A09C1ACBDD3CAA7B0DCA3BAD0ADD2E902
:104CE000B4EDCEF30D0A00005741524E3A09C1AC63
:104CF000BDD3CAA7B0DCA3BAB7C7B7A8B5C4636CA5
:104D000069656E7469640D0A000000005741524ED7
:104D10003A09C1ACBDD3CAA7B0DCA3BAB7FECEF185
:104D2000C6F7CAA7B0DC0D0A000000005741524E7A
:104D30003A09C1ACBDD3CAA7B0DCA3BAD3C3BBA7E1
:104D4000C3FBBBF2C3DCC2EBB4EDCEF30D0A000033
:104D50005741524E3A09C1ACBDD3CAA7B0DCA3BA81
:104D6000B7C7B7A8C1B4BDD328B1C8C8E7746F6BC3
:104D7000656EB7C7B7A8290D0A0000004552523A20
:104D800009C1ACBDD3CAA7B0DCA3BACEB4D6AAB40D
:104D9000EDCEF30D0A0000005741524E3A094D5135
:104DA00054545F5061636B6574436F6E6E656374DA
:104DB000204661696C65640D0A00000053756273DA
:104DC000637269626520546F7069633A2025730DC0
:104DD0000A0000005075626C69736820546F706936
:104DE000633A2025732C204D73673A2025730D0AF2
:104DF00000000000636D6469643A2025732C207202
:104E000065713A2025732C207265715F6C656E3A6E
:104E10002025640D0A00000086140020746F70695C
:104E2000633A2025732C20746F7069635F6C656E24
:104E30003A2025642C207061796C6F61643A2025DA
:104E4000732C207061796C6F61645F6C656E3A20C1
:104E500025640D0A000000004572726F72206265C1
:104E6000666F72653A205B25735D0A007461726734
:104E7000657400006A736F6E5F76616C75653A20C9
:104E80005B25735D0A0000004C45440076616C753B
:104E9000650000009001214242454550000000009D
:104EA0000000002001000020546970733A094D5140
:104EB0005454205075626C6973682053656E642089
:104EC0004F4B0D0A00000000546970733A09526597
:104ED00076205075626C6973685265630D0A000034
:104EE000546970733A0953656E64205075626C6939
:104EF000736852656C0D0A00546970733A09526503
:104F000076205075626C69736852656C0D0A0000FA
:104F1000546970733A0953656E64205075626C6908
:104F20007368436F6D700D0A000000005469707360
:104F30003A09526576205075626C697368436F6DEB
:104F4000700D0A00546970733A094D51545420533E
:104F50007562736372696265204F4B0D0A00000031
:104F6000546970733A094D515454205375627363F8
:104F700072696265204572720D0A0000546970738F
:104F80003A094D51545420556E53756273637269DA
:104F90006265204F4B0D0A00546970733A094D51F8
:104FA000545420556E53756273637269626520456F
:104FB00072720D0A0000000015F8012B50460AF12C
:104FC000010A03A90A542878302802DB28783928F6
:104FD000F2DD03A801F07EFF82460F2F01D0032FE0
:104FE00005D1099801F077FD0A9801F074FD00BF22
:104FF00035E60000FE480068704770B504460D466F
:105000002CB9AC4201D0012070BD0020FCE70DB9E5
:105010000120F9E705E0207808B90020F4E7641CD6
:105020006D1C207801F07EFD0646287801F07AFD9F
:105030008642F0D0207801F075FD0646287801F010
:1050400071FD301AE0E770B50446204601F0C0FF5C
:10505000451C2846E74909688847061E00D170BDEF
:105060002A462146304602F01DF83046F7E730B9AF
:10507000E149E04A1160E149E14A11607047016885
:1050800009B1016800E0DC49DA4A1160416809B100
:10509000416800E0D949DA4A116000BFEEE710B577
:1050A0002820D4490968884704461CB12821204695
:1050B00002F091F8204610BD70B5044622E0256844
:1050C000A08900F4807020B9A06810B1A068FFF733
:1050D000F3FFA08900F4807028B9206918B1C8498D
:1050E000206909688847A08900F4007028B9206AFF
:1050F00018B1C349206A096888472046C049096831
:1051000088472C46002CDAD170BD2DE9F04F8BB0CA
:1051100083468A460020044605460026B94F0021F2
:10512000884689460990012008909AF800002D28A9
:1051300002D1B54F0AF1010A9AF80000302801D1D6
:105140000AF1010A9AF80000312822DB9AF80000DF
:1051500039281EDC00BF1AF8011BA1F1300004F051
:10516000A2FB0022A94BCDE906012046294604F006
:10517000EDFBCDE90401DDE9062304F015F9044651
:105180000D469AF80000302803DB9AF80000392811
:10519000E1DD9AF800002E2830D19AF8010030287D
:1051A0002CDB9AF80100392828DC0AF1010A00BF3B
:1051B0001AF8011BA1F1300004F075FB0022934B9B
:1051C000CDE906012046294604F0C0FBCDE90401E3
:1051D000DDE9062304F0E8F804460D460022894B79
:1051E0004046494604F0D8FD804689469AF80000BA
:1051F000302803DB9AF800003928D9DD9AF800003E
:10520000652803D09AF80000452823D10AF1010A45
:105210009AF800002B2802D10AF1010A08E09AF856
:1052200000002D2804D14FF0FF3008900AF1010A48
:1052300008E01AF8010B3038099901EB810100EB05
:10524000410009909AF80000302803DB9AF800002A
:105250003928EEDDDDE9082101FB02F004F023FB33
:1052600042464B46CDE9000104F09EF802460B464B
:10527000CDE902010020654903F058FB22462B4688
:10528000CDE906013046394604F060FBCDE9040162
:10529000DDE9062304F05AFB04460D46CBE906453A
:1052A0002046294604F0D0FACBF814000320CBF8AE
:1052B0000C0050460BB0BDE8F08F0146491E41EA94
:1052C000610141EAA10141EA211141EA212141EABA
:1052D0002141481C70472DE9F04104460E460CB1AF
:1052E000206810B90020BDE8F081A068064460681D
:1052F000B04203DBA16820680844F4E73046FFF7BA
:10530000DCFF074638463B490968884705463DB9F2
:105310003B49206809688847002060602060E2E718
:1053200025B12846D4E9001201F0BCFE34492068BA
:105330000968884767602560A0682844D3E770B58E
:1053400004460CB1206808B9002070BDA16820682F
:105350004518284601F03CFEA1680844F5E72DE910
:10536000FC4782460E464FF00009DAE90645002266
:1053700013462046294604F02BFA13D12EB1022100
:105380003046FFF7A8FF814604E00220194909686A
:1053900088478146B9F1000F03D01DA00088A9F805
:1053A00000009FE0DAF8140004F07DFA0746224678
:1053B0002B4604F0F1FC21F000410022154BCDE911
:1053C000000104F087FA3ED8134A144B20462946C0
:1053D00004F080FA37D80022114B2046294604F009
:1053E000B3FB30D806B315213046FFF774FF19E040
:1053F000881400208C140020796A0008D76A0008FD
:10540000901400200000F03F0000F0BF0000244096
:10541000300000000000B03C0000C0FFFFFFDF4193
:105420000000E0C1814604E01520FA490968884778
:105430008146B9F1000F55D0F7A14846DAF814209B
:1054400001F098FB4EE02EB140213046FFF743FFBC
:10545000814604E04020EF49096888478146B9F158
:10546000000F3FD02046294603F0F2F907462246B6
:105470002B4604F091FC21F000410022E74BCDE9DE
:10548000000104F027FA0FD825F000412746E44A2E
:10549000E44B384604F01EFA06D222462B46E2A11F
:1054A000484601F067FB1DE025F000412746E04A31
:1054B000E04B384604F00EFA07D325F000410022F5
:1054C000DD4B384604F040FB06D222462B46DBA1DA
:1054D000484601F04FFB05E022462B46D8A148463E
:1054E00001F048FB4846BDE8FC87014600220878E9
:1054F000302806DB0878392803DC08783038024485
:1055000015E00878412806DB0878462803DC08788F
:10551000373802440BE00878612806DB08786628F3
:1055200003DC08785738024401E00020704712017C
:10553000491C0878302806DB0878392803DC08780D
:105540003038024415E00878412806DB0878462800
:1055500003DC0878373802440BE00878612806DB62
:105560000878662803DC08785738024401E00020F8
:10557000DCE71201491C0878302806DB0878392856
:1055800003DC08783038024415E00878412806DB4F
:105590000878462803DC0878373802440BE008789E
:1055A000612806DB0878662803DC0878573802444F
:1055B00001E00020BAE71201491C0878302806DB18
:1055C0000878392803DC08783038024415E0087878
:1055D000412806DB0878462803DC0878373802447F
:1055E0000BE00878612806DB0878662803DC087879
:1055F0005738024401E0002098E7104696E72DE96D
:10560000F05F8346884608F10104002798F80000FF
:10561000222805D08B48C0F800800020BDE8F09F0C
:1056200004E014F8011B5C2900D1641C20782228B6
:1056300004D0207810B1781C071EF2D1781C75496F
:10564000096888478146B9F1000F01D10020E5E7DC
:1056500008F101044D469EE020785C2804D014F83F
:10566000010B05F8010B96E0641C2078722818D015
:1056700006DC622809D066280BD06E287ED10CE0AB
:10568000742812D07528F9D113E0082005F8010B11
:105690007FE00C2005F8010B7BE00A2005F8010BE8
:1056A00077E00D2005F8010B73E0092005F8010BE8
:1056B0006FE0601CFFF719FF0646241DB6F55C4F2E
:1056C00002D3B6F5604F00D306B962E0B6F5584F85
:1056D0001CD3B6F55C4F19D260785C2802D1A07853
:1056E000752800D055E0E01CFFF7FFFE8246A41DA0
:1056F000BAF55C4F02D3BAF5604F00D349E0C6F368
:105700000901504661F39F2000F580360427802E62
:1057100001D2012708E0B6F5006F01D2022703E0AD
:10572000B6F5803F00D203273D44012F20D0022F41
:1057300015D0032F0AD0042F24D106F0BF0040F06B
:105740008001681E05460170B60900BF06F0BF0063
:1057500040F08001681E05460170B60900BF06F0E2
:10576000BF0040F08001681E05460170B60900BF09
:105770003548C05D3043C1B2681E00E005E0054613
:10578000017000BF00BF3D4403E0207805F8010B25
:1057900000BF00BF641C2078222803D02078002896
:1057A0007FF45AAF002028702078222800D1641C92
:1057B000CBF810900420CBF80C0020462EE72DE902
:1057C000F05F804689460027BB46454611E02878B1
:1057D000002802DD2878202805DB2878222802D03E
:1057E00028785C2801D1012000E0002040EA0B0B62
:1057F0006D1C28780028EAD1BBF1000F3ED1A5EB43
:105800000807B9F1000F21D0F91C4846FFF763FDE6
:10581000064620E08C140020256400000000B03C07
:1058200044F3C2E4E4E9634C252E30660000000036
:105830008DEDB5A0F7C6B03E65CDCD412565000024
:1058400025660000881400204CBC0008F81CF649AE
:1058500009688847064616B90020BDE8F09F34461F
:10586000222004F8010B4146204601F08DFB222046
:10587000E0550021781C21543046EEE7B8F1000FC6
:1058800016D1B9F1000F05D003214846FFF723FDDB
:10589000064604E00320E4490968884706460EB935
:1058A0000020DAE7E1A1304601F06EFB3046D4E794
:1058B00095F800A045460BE05146DDA001F036FB0F
:1058C00008B17F1C03E0BAF1200F00DA7F1D6D1CC8
:1058D000BAF1000F02D0781C071EEDD1B9F1000F0C
:1058E00005D0F91C4846FFF7F6FC064604E0F81C14
:1058F000CD490968884706460EB90020ADE7344611
:105900004546222004F8010B47E028781F280ADDCD
:105910002878222807D028785C2804D015F8010BB5
:1059200004F8010B39E05C2004F8010B15F8011BA9
:105930008A460C2919D006DC082912D0092920D062
:105940000A2922D115E00D2917D0222905D05C297A
:105950001BD15C2004F8010B1EE0222004F8010B8F
:105960001AE0622004F8010B16E0662004F8010B2F
:1059700012E06E2004F8010B0EE0722004F8010B17
:105980000AE0742004F8010B06E05246AAA1204662
:1059900001F0F0F8641D00BF00BF28780028B4D1E2
:1059A000222004F8010B002004F8010B304654E7D4
:1059B00070B504460D4629462069FFF700FF70BD0B
:1059C00000E0401C20B1017811B101782029F8DDF8
:1059D00070472DE9F04706460C4620787B2804D016
:1059E000974804600020BDE8F0870620F060601C46
:1059F000FFF7E6FF044620787D2801D1601CF2E71E
:105A0000FFF74DFB0546B060B06808B90020EAE733
:105A10002046FFF7D5FF804641462846FFF7EFFDB9
:105A20000746FFF7CDFF04460CB90020DBE72869E5
:105A300028620020286120783A2803D0804804603A
:105A40000020D0E7601CFFF7BBFF80464146284698
:105A500000F09BF80746FFF7B3FF04460CB900209F
:105A6000C1E732E0FFF71BFB07460FB90020BAE79A
:105A70002F607D603D46601CFFF7A2FF81464946CE
:105A80002846FFF7BCFD8046FFF79AFF04460CB995
:105A90000020A8E7286928620020286120783A2899
:105AA00003D06748046000209DE7601CFFF788FF73
:105AB00081464946284600F068F88046FFF780FF97
:105AC00004460CB900208EE700BF20782C28C9D0EE
:105AD00020787D2801D1601C85E7594804600020AA
